{
  "_format": "hh-sol-artifact-1",
  "contractName": "AveragingStrategy",
  "sourceName": "contracts/AveragingStrategy.sol",
  "abi": [
    {
      "anonymous": false,
      "inputs": [
        {
          "indexed": false,
          "internalType": "address",
          "name": "averagedToken",
          "type": "address"
        },
        {
          "indexed": false,
          "internalType": "uint256",
          "name": "amount",
          "type": "uint256"
        }
      ],
      "name": "AmountAveragingStrategyUpdated",
      "type": "event"
    },
    {
      "anonymous": false,
      "inputs": [
        {
          "indexed": false,
          "internalType": "address",
          "name": "averagedToken",
          "type": "address"
        },
        {
          "indexed": false,
          "internalType": "address",
          "name": "sourceToken",
          "type": "address"
        },
        {
          "indexed": false,
          "internalType": "bool",
          "name": "isActive",
          "type": "bool"
        },
        {
          "indexed": false,
          "internalType": "uint256",
          "name": "amount",
          "type": "uint256"
        },
        {
          "indexed": false,
          "internalType": "uint256",
          "name": "frequency",
          "type": "uint256"
        },
        {
          "indexed": false,
          "internalType": "uint256",
          "name": "averagingStrategyId",
          "type": "uint256"
        }
      ],
      "name": "AveragingStrategyCreated",
      "type": "event"
    },
    {
      "anonymous": false,
      "inputs": [
        {
          "indexed": false,
          "internalType": "uint256",
          "name": "id",
          "type": "uint256"
        }
      ],
      "name": "AveragingStrategyDeleted",
      "type": "event"
    },
    {
      "anonymous": false,
      "inputs": [
        {
          "indexed": false,
          "internalType": "address",
          "name": "averagedToken",
          "type": "address"
        },
        {
          "indexed": false,
          "internalType": "bool",
          "name": "isActive",
          "type": "bool"
        },
        {
          "indexed": false,
          "internalType": "uint256",
          "name": "amount",
          "type": "uint256"
        },
        {
          "indexed": false,
          "internalType": "uint256",
          "name": "frequency",
          "type": "uint256"
        }
      ],
      "name": "AveragingStrategyUpdated",
      "type": "event"
    },
    {
      "anonymous": false,
      "inputs": [
        {
          "indexed": false,
          "internalType": "address",
          "name": "averagedToken",
          "type": "address"
        },
        {
          "indexed": false,
          "internalType": "uint256",
          "name": "frequency",
          "type": "uint256"
        }
      ],
      "name": "FrequencyAveragingStrategyUpdated",
      "type": "event"
    },
    {
      "anonymous": false,
      "inputs": [
        {
          "indexed": false,
          "internalType": "address",
          "name": "averagedToken",
          "type": "address"
        },
        {
          "indexed": false,
          "internalType": "bool",
          "name": "isActive",
          "type": "bool"
        }
      ],
      "name": "StatusAveragingStrategyUpdated",
      "type": "event"
    },
    {
      "inputs": [
        {
          "internalType": "address",
          "name": "_averagedToken",
          "type": "address"
        },
        {
          "internalType": "address",
          "name": "_sourceToken",
          "type": "address"
        },
        {
          "internalType": "bool",
          "name": "_isActive",
          "type": "bool"
        },
        {
          "internalType": "uint256",
          "name": "_amount",
          "type": "uint256"
        },
        {
          "internalType": "uint256",
          "name": "_frequency",
          "type": "uint256"
        }
      ],
      "name": "createAveragingStrategy",
      "outputs": [],
      "stateMutability": "nonpayable",
      "type": "function"
    },
    {
      "inputs": [
        {
          "internalType": "uint256",
          "name": "id",
          "type": "uint256"
        }
      ],
      "name": "deleteAveragingStrategy",
      "outputs": [],
      "stateMutability": "nonpayable",
      "type": "function"
    },
    {
      "inputs": [],
      "name": "getAveragingAddresses",
      "outputs": [
        {
          "internalType": "address[]",
          "name": "",
          "type": "address[]"
        }
      ],
      "stateMutability": "view",
      "type": "function"
    },
    {
      "inputs": [],
      "name": "readAveragingStrategy",
      "outputs": [
        {
          "components": [
            {
              "internalType": "address",
              "name": "sourceToken",
              "type": "address"
            },
            {
              "internalType": "address",
              "name": "averagedToken",
              "type": "address"
            },
            {
              "internalType": "bool",
              "name": "isActive",
              "type": "bool"
            },
            {
              "internalType": "uint256",
              "name": "amount",
              "type": "uint256"
            },
            {
              "internalType": "uint256",
              "name": "frequency",
              "type": "uint256"
            },
            {
              "internalType": "uint256",
              "name": "averagingStrategyId",
              "type": "uint256"
            },
            {
              "internalType": "uint256",
              "name": "creationTimestamp",
              "type": "uint256"
            }
          ],
          "internalType": "struct AveragingStrategy.AveragingStrategyConfig[]",
          "name": "",
          "type": "tuple[]"
        }
      ],
      "stateMutability": "view",
      "type": "function"
    }
  ],
  "bytecode": "0x60806040526000805534801561001457600080fd5b50611511806100246000396000f3fe608060405234801561001057600080fd5b506004361061004c5760003560e01c806309a03dde146100515780633d383f221461006f578063965e985d1461008b578063d7efca17146100a7575b600080fd5b6100596100c5565b6040516100669190610cc6565b60405180910390f35b61008960048036038101906100849190610d23565b610153565b005b6100a560048036038101906100a09190610db4565b6105cb565b005b6100af610a4b565b6040516100bc9190610f8a565b60405180910390f35b6060600180548060200260200160405190810160405280929190818152602001828054801561014957602002820191906000526020600020905b8160009054906101000a900473ffffffffffffffffffffffffffffffffffffffff1673ffffffffffffffffffffffffffffffffffffffff16815260200190600101908083116100ff575b5050505050905090565b60005b600260003373ffffffffffffffffffffffffffffffffffffffff1673ffffffffffffffffffffffffffffffffffffffff1681526020019081526020016000208054905081101561058c5781600260003373ffffffffffffffffffffffffffffffffffffffff1673ffffffffffffffffffffffffffffffffffffffff16815260200190815260200160002082815481106101f2576101f1610fac565b5b9060005260206000209060060201600401540361057957600260003373ffffffffffffffffffffffffffffffffffffffff1673ffffffffffffffffffffffffffffffffffffffff1681526020019081526020016000206001600260003373ffffffffffffffffffffffffffffffffffffffff1673ffffffffffffffffffffffffffffffffffffffff16815260200190815260200160002080549050610297919061100a565b815481106102a8576102a7610fac565b5b9060005260206000209060060201600260003373ffffffffffffffffffffffffffffffffffffffff1673ffffffffffffffffffffffffffffffffffffffff168152602001908152602001600020828154811061030757610306610fac565b5b90600052602060002090600602016000820160009054906101000a900473ffffffffffffffffffffffffffffffffffffffff168160000160006101000a81548173ffffffffffffffffffffffffffffffffffffffff021916908373ffffffffffffffffffffffffffffffffffffffff1602179055506001820160009054906101000a900473ffffffffffffffffffffffffffffffffffffffff168160010160006101000a81548173ffffffffffffffffffffffffffffffffffffffff021916908373ffffffffffffffffffffffffffffffffffffffff1602179055506001820160149054906101000a900460ff168160010160146101000a81548160ff02191690831515021790555060028201548160020155600382015481600301556004820154816004015560058201548160050155905050600260003373ffffffffffffffffffffffffffffffffffffffff1673ffffffffffffffffffffffffffffffffffffffff16815260200190815260200160002080548061048a5761048961103e565b5b6001900381819060005260206000209060060201600080820160006101000a81549073ffffffffffffffffffffffffffffffffffffffff02191690556001820160006101000a81549073ffffffffffffffffffffffffffffffffffffffff02191690556001820160146101000a81549060ff02191690556002820160009055600382016000905560048201600090556005820160009055505090556000808154809291906105379061106d565b91905055507f342b991377f2a2c86b73bfc7506148c42887856003e42b96c2f9103e4803d71f8260405161056b91906110c4565b60405180910390a1506105c8565b80806105849061106d565b915050610156565b506040517f08c379a00000000000000000000000000000000000000000000000000000000081526004016105bf9061113c565b60405180910390fd5b50565b600a600260003373ffffffffffffffffffffffffffffffffffffffff1673ffffffffffffffffffffffffffffffffffffffff1681526020019081526020016000208054905010610650576040517f08c379a0000000000000000000000000000000000000000000000000000000008152600401610647906111f4565b60405180910390fd5b8473ffffffffffffffffffffffffffffffffffffffff168473ffffffffffffffffffffffffffffffffffffffff16036106be576040517f08c379a00000000000000000000000000000000000000000000000000000000081526004016106b590611286565b60405180910390fd5b6001821015610702576040517f08c379a00000000000000000000000000000000000000000000000000000000081526004016106f990611318565b60405180910390fd5b603c811015610746576040517f08c379a000000000000000000000000000000000000000000000000000000000815260040161073d906113aa565b60405180910390fd5b6301e187e081111561078d576040517f08c379a00000000000000000000000000000000000000000000000000000000081526004016107849061143c565b60405180910390fd5b6000600260003373ffffffffffffffffffffffffffffffffffffffff1673ffffffffffffffffffffffffffffffffffffffff168152602001908152602001600020805490500361083b576001339080600181540180825580915050600190039060005260206000200160009091909190916101000a81548173ffffffffffffffffffffffffffffffffffffffff021916908373ffffffffffffffffffffffffffffffffffffffff1602179055505b600260003373ffffffffffffffffffffffffffffffffffffffff1673ffffffffffffffffffffffffffffffffffffffff1681526020019081526020016000206040518060e001604052808673ffffffffffffffffffffffffffffffffffffffff1681526020018773ffffffffffffffffffffffffffffffffffffffff1681526020018515158152602001848152602001838152602001600054815260200142815250908060018154018082558091505060019003906000526020600020906006020160009091909190915060008201518160000160006101000a81548173ffffffffffffffffffffffffffffffffffffffff021916908373ffffffffffffffffffffffffffffffffffffffff16021790555060208201518160010160006101000a81548173ffffffffffffffffffffffffffffffffffffffff021916908373ffffffffffffffffffffffffffffffffffffffff16021790555060408201518160010160146101000a81548160ff021916908315150217905550606082015181600201556080820151816003015560a0820151816004015560c0820151816005015550506000808154809291906109f09061106d565b91905055507f83b69673412e1a4e86ffbda1cb888ecb3dc6b34c9a85b8ea37c577589e024d9b85858585856001600054610a2a919061100a565b604051610a3c9695949392919061147a565b60405180910390a15050505050565b6060600260003373ffffffffffffffffffffffffffffffffffffffff1673ffffffffffffffffffffffffffffffffffffffff168152602001908152602001600020805480602002602001604051908101604052809291908181526020016000905b82821015610bcd57838290600052602060002090600602016040518060e00160405290816000820160009054906101000a900473ffffffffffffffffffffffffffffffffffffffff1673ffffffffffffffffffffffffffffffffffffffff1673ffffffffffffffffffffffffffffffffffffffff1681526020016001820160009054906101000a900473ffffffffffffffffffffffffffffffffffffffff1673ffffffffffffffffffffffffffffffffffffffff1673ffffffffffffffffffffffffffffffffffffffff1681526020016001820160149054906101000a900460ff1615151515815260200160028201548152602001600382015481526020016004820154815260200160058201548152505081526020019060010190610aac565b50505050905090565b600081519050919050565b600082825260208201905092915050565b6000819050602082019050919050565b600073ffffffffffffffffffffffffffffffffffffffff82169050919050565b6000610c2d82610c02565b9050919050565b610c3d81610c22565b82525050565b6000610c4f8383610c34565b60208301905092915050565b6000602082019050919050565b6000610c7382610bd6565b610c7d8185610be1565b9350610c8883610bf2565b8060005b83811015610cb9578151610ca08882610c43565b9750610cab83610c5b565b925050600181019050610c8c565b5085935050505092915050565b60006020820190508181036000830152610ce08184610c68565b905092915050565b600080fd5b6000819050919050565b610d0081610ced565b8114610d0b57600080fd5b50565b600081359050610d1d81610cf7565b92915050565b600060208284031215610d3957610d38610ce8565b5b6000610d4784828501610d0e565b91505092915050565b610d5981610c22565b8114610d6457600080fd5b50565b600081359050610d7681610d50565b92915050565b60008115159050919050565b610d9181610d7c565b8114610d9c57600080fd5b50565b600081359050610dae81610d88565b92915050565b600080600080600060a08688031215610dd057610dcf610ce8565b5b6000610dde88828901610d67565b9550506020610def88828901610d67565b9450506040610e0088828901610d9f565b9350506060610e1188828901610d0e565b9250506080610e2288828901610d0e565b9150509295509295909350565b600081519050919050565b600082825260208201905092915050565b6000819050602082019050919050565b610e6481610d7c565b82525050565b610e7381610ced565b82525050565b60e082016000820151610e8f6000850182610c34565b506020820151610ea26020850182610c34565b506040820151610eb56040850182610e5b565b506060820151610ec86060850182610e6a565b506080820151610edb6080850182610e6a565b5060a0820151610eee60a0850182610e6a565b5060c0820151610f0160c0850182610e6a565b50505050565b6000610f138383610e79565b60e08301905092915050565b6000602082019050919050565b6000610f3782610e2f565b610f418185610e3a565b9350610f4c83610e4b565b8060005b83811015610f7d578151610f648882610f07565b9750610f6f83610f1f565b925050600181019050610f50565b5085935050505092915050565b60006020820190508181036000830152610fa48184610f2c565b905092915050565b7f4e487b7100000000000000000000000000000000000000000000000000000000600052603260045260246000fd5b7f4e487b7100000000000000000000000000000000000000000000000000000000600052601160045260246000fd5b600061101582610ced565b915061102083610ced565b925082820390508181111561103857611037610fdb565b5b92915050565b7f4e487b7100000000000000000000000000000000000000000000000000000000600052603160045260246000fd5b600061107882610ced565b91507fffffffffffffffffffffffffffffffffffffffffffffffffffffffffffffffff82036110aa576110a9610fdb565b5b600182019050919050565b6110be81610ced565b82525050565b60006020820190506110d960008301846110b5565b92915050565b600082825260208201905092915050565b7f417665726167696e67207374726174656779206964206e6f7420666f756e642e600082015250565b60006111266020836110df565b9150611131826110f0565b602082019050919050565b6000602082019050818103600083015261115581611119565b9050919050565b7f596f752063616e6e6f742068617665206d6f7265207468616e2031302061766560008201527f726167696e672073747261746567696573206174207468652073616d6520746960208201527f6d652e0000000000000000000000000000000000000000000000000000000000604082015250565b60006111de6043836110df565b91506111e98261115c565b606082019050919050565b6000602082019050818103600083015261120d816111d1565b9050919050565b7f596f75206d757374207573652074776f20646966666572656e7420746f6b656e60008201527f732e000000000000000000000000000000000000000000000000000000000000602082015250565b60006112706022836110df565b915061127b82611214565b604082019050919050565b6000602082019050818103600083015261129f81611263565b9050919050565b7f546865206d696e696d756d20616d6f756e7420746f207370656e64206973203160008201527f2e00000000000000000000000000000000000000000000000000000000000000602082015250565b60006113026021836110df565b915061130d826112a6565b604082019050919050565b60006020820190508181036000830152611331816112f5565b9050919050565b7f546865206d696e696d756d206672657175656e63792069732031206d696e757460008201527f652e000000000000000000000000000000000000000000000000000000000000602082015250565b60006113946022836110df565b915061139f82611338565b604082019050919050565b600060208201905081810360008301526113c381611387565b9050919050565b7f546865206d6178696d756e206672657175656e6379206973203132206d6f6e7460008201527f68732e0000000000000000000000000000000000000000000000000000000000602082015250565b60006114266023836110df565b9150611431826113ca565b604082019050919050565b6000602082019050818103600083015261145581611419565b9050919050565b61146581610c22565b82525050565b61147481610d7c565b82525050565b600060c08201905061148f600083018961145c565b61149c602083018861145c565b6114a9604083018761146b565b6114b660608301866110b5565b6114c360808301856110b5565b6114d060a08301846110b5565b97965050505050505056fea26469706673582212205b0cfdc6c1b4183928a05a9c5c84e72afee46571bfc504b27fb01438753b303b64736f6c63430008110033",
  "linkReferences": {},
  "deployedLinkReferences": {}
}