{
  "_format": "hh-sol-artifact-1",
  "contractName": "AveragingStrategy",
  "sourceName": "contracts/AveragingStrategy.sol",
  "abi": [
    {
      "inputs": [
        {
          "internalType": "address",
          "name": "_upkeepContract",
          "type": "address"
        },
        {
          "internalType": "address",
          "name": "_goerliChainlinkLinkTokenAddress",
          "type": "address"
        },
        {
          "internalType": "address",
          "name": "_goerliChainlinkAutomationRegistrarAddress",
          "type": "address"
        },
        {
          "internalType": "address",
          "name": "_goerliChainlinkAutomationRegistryAddress",
          "type": "address"
        }
      ],
      "stateMutability": "nonpayable",
      "type": "constructor"
    },
    {
      "anonymous": false,
      "inputs": [
        {
          "indexed": false,
          "internalType": "address",
          "name": "averagedToken",
          "type": "address"
        },
        {
          "indexed": false,
          "internalType": "uint256",
          "name": "amount",
          "type": "uint256"
        }
      ],
      "name": "AmountAveragingStrategyUpdated",
      "type": "event"
    },
    {
      "anonymous": false,
      "inputs": [
        {
          "indexed": false,
          "internalType": "address",
          "name": "averagedToken",
          "type": "address"
        },
        {
          "indexed": false,
          "internalType": "address",
          "name": "sourceToken",
          "type": "address"
        },
        {
          "indexed": false,
          "internalType": "bool",
          "name": "isActive",
          "type": "bool"
        },
        {
          "indexed": false,
          "internalType": "uint256",
          "name": "amount",
          "type": "uint256"
        },
        {
          "indexed": false,
          "internalType": "uint256",
          "name": "frequency",
          "type": "uint256"
        },
        {
          "indexed": false,
          "internalType": "uint256",
          "name": "averagingStrategyId",
          "type": "uint256"
        }
      ],
      "name": "AveragingStrategyCreated",
      "type": "event"
    },
    {
      "anonymous": false,
      "inputs": [
        {
          "indexed": false,
          "internalType": "address",
          "name": "averagedToken",
          "type": "address"
        }
      ],
      "name": "AveragingStrategyDeleted",
      "type": "event"
    },
    {
      "anonymous": false,
      "inputs": [
        {
          "indexed": false,
          "internalType": "address",
          "name": "averagedToken",
          "type": "address"
        },
        {
          "indexed": false,
          "internalType": "bool",
          "name": "isActive",
          "type": "bool"
        },
        {
          "indexed": false,
          "internalType": "uint256",
          "name": "amount",
          "type": "uint256"
        },
        {
          "indexed": false,
          "internalType": "uint256",
          "name": "frequency",
          "type": "uint256"
        }
      ],
      "name": "AveragingStrategyUpdated",
      "type": "event"
    },
    {
      "anonymous": false,
      "inputs": [
        {
          "indexed": false,
          "internalType": "address",
          "name": "averagedToken",
          "type": "address"
        },
        {
          "indexed": false,
          "internalType": "uint256",
          "name": "frequency",
          "type": "uint256"
        }
      ],
      "name": "FrequencyAveragingStrategyUpdated",
      "type": "event"
    },
    {
      "anonymous": false,
      "inputs": [
        {
          "indexed": false,
          "internalType": "address",
          "name": "averagedToken",
          "type": "address"
        },
        {
          "indexed": false,
          "internalType": "bool",
          "name": "isActive",
          "type": "bool"
        }
      ],
      "name": "StatusAveragingStrategyUpdated",
      "type": "event"
    },
    {
      "inputs": [
        {
          "internalType": "address",
          "name": "_averagedToken",
          "type": "address"
        },
        {
          "internalType": "address",
          "name": "_sourceToken",
          "type": "address"
        },
        {
          "internalType": "bool",
          "name": "_isActive",
          "type": "bool"
        },
        {
          "internalType": "uint256",
          "name": "_amount",
          "type": "uint256"
        },
        {
          "internalType": "uint256",
          "name": "_frequency",
          "type": "uint256"
        }
      ],
      "name": "createAveragingStrategy",
      "outputs": [],
      "stateMutability": "nonpayable",
      "type": "function"
    },
    {
      "inputs": [
        {
          "internalType": "address",
          "name": "_averagedToken",
          "type": "address"
        }
      ],
      "name": "deleteAveragingStrategy",
      "outputs": [],
      "stateMutability": "nonpayable",
      "type": "function"
    },
    {
      "inputs": [],
      "name": "getAveragingAddresses",
      "outputs": [
        {
          "internalType": "address[]",
          "name": "",
          "type": "address[]"
        }
      ],
      "stateMutability": "view",
      "type": "function"
    },
    {
      "inputs": [],
      "name": "readAveragingStrategy",
      "outputs": [
        {
          "components": [
            {
              "internalType": "address",
              "name": "sourceToken",
              "type": "address"
            },
            {
              "internalType": "address",
              "name": "averagedToken",
              "type": "address"
            },
            {
              "internalType": "bool",
              "name": "isActive",
              "type": "bool"
            },
            {
              "internalType": "uint256",
              "name": "amount",
              "type": "uint256"
            },
            {
              "internalType": "uint256",
              "name": "frequency",
              "type": "uint256"
            },
            {
              "internalType": "uint256",
              "name": "averagingStrategyId",
              "type": "uint256"
            },
            {
              "internalType": "uint256",
              "name": "creationTimestamp",
              "type": "uint256"
            }
          ],
          "internalType": "struct AveragingStrategy.AveragingStrategyConfig[]",
          "name": "",
          "type": "tuple[]"
        }
      ],
      "stateMutability": "view",
      "type": "function"
    },
    {
      "inputs": [
        {
          "internalType": "address",
          "name": "_averagedToken",
          "type": "address"
        },
        {
          "internalType": "uint256",
          "name": "_amount",
          "type": "uint256"
        }
      ],
      "name": "updateAmountAveragingStrategy",
      "outputs": [],
      "stateMutability": "nonpayable",
      "type": "function"
    },
    {
      "inputs": [
        {
          "internalType": "address",
          "name": "_averagedToken",
          "type": "address"
        },
        {
          "internalType": "bool",
          "name": "_isActive",
          "type": "bool"
        },
        {
          "internalType": "uint256",
          "name": "_amount",
          "type": "uint256"
        },
        {
          "internalType": "uint256",
          "name": "_frequency",
          "type": "uint256"
        }
      ],
      "name": "updateAveragingStrategy",
      "outputs": [],
      "stateMutability": "nonpayable",
      "type": "function"
    },
    {
      "inputs": [
        {
          "internalType": "address",
          "name": "_averagedToken",
          "type": "address"
        },
        {
          "internalType": "uint256",
          "name": "_frequency",
          "type": "uint256"
        }
      ],
      "name": "updateFrequencyAveragingStrategy",
      "outputs": [],
      "stateMutability": "nonpayable",
      "type": "function"
    },
    {
      "inputs": [
        {
          "internalType": "address",
          "name": "_averagedToken",
          "type": "address"
        }
      ],
      "name": "updateStatusAveragingStrategy",
      "outputs": [],
      "stateMutability": "nonpayable",
      "type": "function"
    }
  ],
  "bytecode": "0x6080604052600080553480156200001557600080fd5b5060405162002f8938038062002f8983398181016040528101906200003b9190620001b3565b83600460006101000a81548173ffffffffffffffffffffffffffffffffffffffff021916908373ffffffffffffffffffffffffffffffffffffffff16021790555082600560006101000a81548173ffffffffffffffffffffffffffffffffffffffff021916908373ffffffffffffffffffffffffffffffffffffffff16021790555081600660006101000a81548173ffffffffffffffffffffffffffffffffffffffff021916908373ffffffffffffffffffffffffffffffffffffffff16021790555080600760006101000a81548173ffffffffffffffffffffffffffffffffffffffff021916908373ffffffffffffffffffffffffffffffffffffffff1602179055505050505062000225565b600080fd5b600073ffffffffffffffffffffffffffffffffffffffff82169050919050565b60006200017b826200014e565b9050919050565b6200018d816200016e565b81146200019957600080fd5b50565b600081519050620001ad8162000182565b92915050565b60008060008060808587031215620001d057620001cf62000149565b5b6000620001e0878288016200019c565b9450506020620001f3878288016200019c565b935050604062000206878288016200019c565b925050606062000219878288016200019c565b91505092959194509250565b612d5480620002356000396000f3fe60806040523480156200001157600080fd5b5060043610620000945760003560e01c80634d614f4011620000635780634d614f40146200011b57806378e1d958146200013b578063965e985d146200015b578063d7efca17146200017b5762000094565b806309a03dde1462000099578063236052b514620000bb5780633634652e14620000db5780634a6a84be14620000fb575b600080fd5b620000a36200019d565b604051620000b2919062000d1c565b60405180910390f35b620000d96004803603810190620000d3919062000dee565b6200022d565b005b620000f96004803603810190620000f3919062000e60565b62000272565b005b62000119600480360381019062000113919062000ea7565b620002b1565b005b62000139600480360381019062000133919062000ea7565b6200033a565b005b62000159600480360381019062000153919062000e60565b6200033d565b005b62000179600480360381019062000173919062000ed9565b6200037c565b005b62000185620009be565b604051620001949190620010dc565b60405180910390f35b606060018054806020026020016040519081016040528092919081815260200182805480156200022357602002820191906000526020600020905b8160009054906101000a900473ffffffffffffffffffffffffffffffffffffffff1673ffffffffffffffffffffffffffffffffffffffff1681526020019060010190808311620001d8575b5050505050905090565b7f172d468e76115c1a6fa3f01b0b27ecdc71695efc2a27d603059e3e480107f1e78484848460405162000264949392919062001133565b60405180910390a150505050565b7f183cd447c8ed9fbbe48a061af56132f6aaba63710416deb806e33895a5939cb18282604051620002a592919062001180565b60405180910390a15050565b600260008273ffffffffffffffffffffffffffffffffffffffff1673ffffffffffffffffffffffffffffffffffffffff1681526020019081526020016000206000620002fe919062000b4b565b7f05e9984540e47664017f699a27c3f478d05ef1bafce33c1ac64542ca1e7f70e3816040516200032f9190620011ad565b60405180910390a150565b50565b7fa793ead1af3107754cfcda5b88a068e2c9521ac74d482b95c38659c654b9258982826040516200037092919062001180565b60405180910390a15050565b600a600260003373ffffffffffffffffffffffffffffffffffffffff1673ffffffffffffffffffffffffffffffffffffffff168152602001908152602001600020805490501062000404576040517f08c379a0000000000000000000000000000000000000000000000000000000008152600401620003fb9062001277565b60405180910390fd5b6000600460009054906101000a900473ffffffffffffffffffffffffffffffffffffffff16600560009054906101000a900473ffffffffffffffffffffffffffffffffffffffff16600660009054906101000a900473ffffffffffffffffffffffffffffffffffffffff16600760009054906101000a900473ffffffffffffffffffffffffffffffffffffffff16604051620004a09062000b71565b620004af949392919062001299565b604051809103906000f080158015620004cc573d6000803e3d6000fd5b5090506000600260003373ffffffffffffffffffffffffffffffffffffffff1673ffffffffffffffffffffffffffffffffffffffff16815260200190815260200160002080549050036200057e576001339080600181540180825580915050600190039060005260206000200160009091909190916101000a81548173ffffffffffffffffffffffffffffffffffffffff021916908373ffffffffffffffffffffffffffffffffffffffff1602179055505b600260003373ffffffffffffffffffffffffffffffffffffffff1673ffffffffffffffffffffffffffffffffffffffff1681526020019081526020016000206040518060e001604052808773ffffffffffffffffffffffffffffffffffffffff1681526020018873ffffffffffffffffffffffffffffffffffffffff1681526020018615158152602001858152602001848152602001600054815260200142815250908060018154018082558091505060019003906000526020600020906006020160009091909190915060008201518160000160006101000a81548173ffffffffffffffffffffffffffffffffffffffff021916908373ffffffffffffffffffffffffffffffffffffffff16021790555060208201518160010160006101000a81548173ffffffffffffffffffffffffffffffffffffffff021916908373ffffffffffffffffffffffffffffffffffffffff16021790555060408201518160010160146101000a81548160ff021916908315150217905550606082015181600201556080820151816003015560a0820151816004015560c082015181600501555050600080815480929190620007359062001315565b919050555060005b60018054905081101562000970576000600260006001848154811062000768576200076762001362565b5b9060005260206000200160009054906101000a900473ffffffffffffffffffffffffffffffffffffffff1673ffffffffffffffffffffffffffffffffffffffff1673ffffffffffffffffffffffffffffffffffffffff168152602001908152602001600020604051602001620007df9190620015de565b60405160208183030381529060405290508273ffffffffffffffffffffffffffffffffffffffff16637235f14f6001848154811062000823576200082262001362565b5b9060005260206000200160009054906101000a900473ffffffffffffffffffffffffffffffffffffffff16604051602001620008609190620016ad565b604051602081830303815290604052836040518363ffffffff1660e01b81526004016200088f929190620017bd565b6020604051808303816000875af1158015620008af573d6000803e3d6000fd5b505050506040513d601f19601f82011682018060405250810190620008d591906200180f565b6003600060018581548110620008f057620008ef62001362565b5b9060005260206000200160009054906101000a900473ffffffffffffffffffffffffffffffffffffffff1673ffffffffffffffffffffffffffffffffffffffff1673ffffffffffffffffffffffffffffffffffffffff16815260200190815260200160002081905550508080620009679062001315565b9150506200073d565b507f83b69673412e1a4e86ffbda1cb888ecb3dc6b34c9a85b8ea37c577589e024d9b8686868686600054604051620009ae9695949392919062001841565b60405180910390a1505050505050565b6060600260003373ffffffffffffffffffffffffffffffffffffffff1673ffffffffffffffffffffffffffffffffffffffff168152602001908152602001600020805480602002602001604051908101604052809291908181526020016000905b8282101562000b4257838290600052602060002090600602016040518060e00160405290816000820160009054906101000a900473ffffffffffffffffffffffffffffffffffffffff1673ffffffffffffffffffffffffffffffffffffffff1673ffffffffffffffffffffffffffffffffffffffff1681526020016001820160009054906101000a900473ffffffffffffffffffffffffffffffffffffffff1673ffffffffffffffffffffffffffffffffffffffff1673ffffffffffffffffffffffffffffffffffffffff1681526020016001820160149054906101000a900460ff161515151581526020016002820154815260200160038201548152602001600482015481526020016005820154815250508152602001906001019062000a1f565b50505050905090565b508054600082556006029060005260206000209081019062000b6e919062000b7f565b50565b61147080620018af83390190565b5b8082111562000c1657600080820160006101000a81549073ffffffffffffffffffffffffffffffffffffffff02191690556001820160006101000a81549073ffffffffffffffffffffffffffffffffffffffff02191690556001820160146101000a81549060ff021916905560028201600090556003820160009055600482016000905560058201600090555060060162000b80565b5090565b600081519050919050565b600082825260208201905092915050565b6000819050602082019050919050565b600073ffffffffffffffffffffffffffffffffffffffff82169050919050565b600062000c738262000c46565b9050919050565b62000c858162000c66565b82525050565b600062000c99838362000c7a565b60208301905092915050565b6000602082019050919050565b600062000cbf8262000c1a565b62000ccb818562000c25565b935062000cd88362000c36565b8060005b8381101562000d0f57815162000cf3888262000c8b565b975062000d008362000ca5565b92505060018101905062000cdc565b5085935050505092915050565b6000602082019050818103600083015262000d38818462000cb2565b905092915050565b600080fd5b62000d508162000c66565b811462000d5c57600080fd5b50565b60008135905062000d708162000d45565b92915050565b60008115159050919050565b62000d8d8162000d76565b811462000d9957600080fd5b50565b60008135905062000dad8162000d82565b92915050565b6000819050919050565b62000dc88162000db3565b811462000dd457600080fd5b50565b60008135905062000de88162000dbd565b92915050565b6000806000806080858703121562000e0b5762000e0a62000d40565b5b600062000e1b8782880162000d5f565b945050602062000e2e8782880162000d9c565b935050604062000e418782880162000dd7565b925050606062000e548782880162000dd7565b91505092959194509250565b6000806040838503121562000e7a5762000e7962000d40565b5b600062000e8a8582860162000d5f565b925050602062000e9d8582860162000dd7565b9150509250929050565b60006020828403121562000ec05762000ebf62000d40565b5b600062000ed08482850162000d5f565b91505092915050565b600080600080600060a0868803121562000ef85762000ef762000d40565b5b600062000f088882890162000d5f565b955050602062000f1b8882890162000d5f565b945050604062000f2e8882890162000d9c565b935050606062000f418882890162000dd7565b925050608062000f548882890162000dd7565b9150509295509295909350565b600081519050919050565b600082825260208201905092915050565b6000819050602082019050919050565b62000f988162000d76565b82525050565b62000fa98162000db3565b82525050565b60e08201600082015162000fc7600085018262000c7a565b50602082015162000fdc602085018262000c7a565b50604082015162000ff1604085018262000f8d565b50606082015162001006606085018262000f9e565b5060808201516200101b608085018262000f9e565b5060a08201516200103060a085018262000f9e565b5060c08201516200104560c085018262000f9e565b50505050565b600062001059838362000faf565b60e08301905092915050565b6000602082019050919050565b60006200107f8262000f61565b6200108b818562000f6c565b9350620010988362000f7d565b8060005b83811015620010cf578151620010b388826200104b565b9750620010c08362001065565b9250506001810190506200109c565b5085935050505092915050565b60006020820190508181036000830152620010f8818462001072565b905092915050565b6200110b8162000c66565b82525050565b6200111c8162000d76565b82525050565b6200112d8162000db3565b82525050565b60006080820190506200114a600083018762001100565b62001159602083018662001111565b62001168604083018562001122565b62001177606083018462001122565b95945050505050565b600060408201905062001197600083018562001100565b620011a6602083018462001122565b9392505050565b6000602082019050620011c4600083018462001100565b92915050565b600082825260208201905092915050565b7f596f752063616e6e6f742068617665206d6f7265207468616e2031302061766560008201527f726167696e672073747261746567696573206174207468652073616d6520746960208201527f6d652e0000000000000000000000000000000000000000000000000000000000604082015250565b60006200125f604383620011ca565b91506200126c82620011db565b606082019050919050565b60006020820190508181036000830152620012928162001250565b9050919050565b6000608082019050620012b0600083018762001100565b620012bf602083018662001100565b620012ce604083018562001100565b620012dd606083018462001100565b95945050505050565b7f4e487b7100000000000000000000000000000000000000000000000000000000600052601160045260246000fd5b6000620013228262000db3565b91507fffffffffffffffffffffffffffffffffffffffffffffffffffffffffffffffff8203620013575762001356620012e6565b5b600182019050919050565b7f4e487b7100000000000000000000000000000000000000000000000000000000600052603260045260246000fd5b600081549050919050565b60008190508160005260206000209050919050565b60008160001c9050919050565b600073ffffffffffffffffffffffffffffffffffffffff82169050919050565b6000620013f5620013ef83620013b1565b620013be565b9050919050565b60008160a01c9050919050565b600060ff82169050919050565b60006200142d6200142783620013fc565b62001409565b9050919050565b6000819050919050565b6000620014556200144f83620013b1565b62001434565b9050919050565b60e0820160008083015490506200147381620013de565b62001482600086018262000c7a565b50600183015490506200149581620013de565b620014a4602086018262000c7a565b50620014b08162001416565b620014bf604086018262000f8d565b5060028301549050620014d2816200143e565b620014e1606086018262000f9e565b5060038301549050620014f4816200143e565b62001503608086018262000f9e565b506004830154905062001516816200143e565b6200152560a086018262000f9e565b506005830154905062001538816200143e565b6200154760c086018262000f9e565b5050505050565b60006200155c83836200145c565b60e08301905092915050565b6000600682019050919050565b6000620015828262001391565b6200158e818562000f6c565b93506200159b836200139c565b8060005b83811015620015d15781620015b588826200154e565b9750620015c28362001568565b9250506001810190506200159f565b5085935050505092915050565b60006020820190508181036000830152620015fa818462001575565b905092915050565b600081905092915050565b7f417665726167696e67537472617465676965734f660000000000000000000000600082015250565b60006200164560158362001602565b915062001652826200160d565b601582019050919050565b60008160601b9050919050565b600062001677826200165d565b9050919050565b60006200168b826200166a565b9050919050565b620016a7620016a18262000c66565b6200167e565b82525050565b6000620016ba8262001636565b9150620016c8828462001692565b60148201915081905092915050565b600081519050919050565b60005b8381101562001702578082015181840152602081019050620016e5565b60008484015250505050565b6000601f19601f8301169050919050565b60006200172c82620016d7565b620017388185620011ca565b93506200174a818560208601620016e2565b62001755816200170e565b840191505092915050565b600081519050919050565b600082825260208201905092915050565b6000620017898262001760565b6200179581856200176b565b9350620017a7818560208601620016e2565b620017b2816200170e565b840191505092915050565b60006040820190508181036000830152620017d981856200171f565b90508181036020830152620017ef81846200177c565b90509392505050565b600081519050620018098162000dbd565b92915050565b60006020828403121562001828576200182762000d40565b5b60006200183884828501620017f8565b91505092915050565b600060c08201905062001858600083018962001100565b62001867602083018862001100565b62001876604083018762001111565b62001885606083018662001122565b62001894608083018562001122565b620018a360a083018462001122565b97965050505050505056fe60e0604052633659d66660e01b6000806101000a81548163ffffffff021916908360e01c0217905550674563918244f400006001553480156200004157600080fd5b5060405162001470380380620014708339818101604052810190620000679190620001b8565b83600260006101000a81548173ffffffffffffffffffffffffffffffffffffffff021916908373ffffffffffffffffffffffffffffffffffffffff1602179055508273ffffffffffffffffffffffffffffffffffffffff1660808173ffffffffffffffffffffffffffffffffffffffff16815250508173ffffffffffffffffffffffffffffffffffffffff1660a08173ffffffffffffffffffffffffffffffffffffffff16815250508073ffffffffffffffffffffffffffffffffffffffff1660c08173ffffffffffffffffffffffffffffffffffffffff1681525050505050506200022a565b600080fd5b600073ffffffffffffffffffffffffffffffffffffffff82169050919050565b6000620001808262000153565b9050919050565b620001928162000173565b81146200019e57600080fd5b50565b600081519050620001b28162000187565b92915050565b60008060008060808587031215620001d557620001d46200014e565b5b6000620001e587828801620001a1565b9450506020620001f887828801620001a1565b93505060406200020b87828801620001a1565b92505060606200021e87828801620001a1565b91505092959194509250565b60805160a05160c0516111f36200027d600039600081816101060152818161015401528181610347015261041701526000818161012a015261029201526000818161025601526104b301526111f36000f3fe608060405234801561001057600080fd5b50600436106100575760003560e01c80632a6636061461005c5780632b20e3971461007a5780637235f14f146100985780637d253aff146100c8578063c791316e146100e6575b600080fd5b610064610104565b604051610071919061055a565b60405180910390f35b610082610128565b60405161008f9190610596565b60405180910390f35b6100b260048036038101906100ad919061076b565b61014c565b6040516100bf9190610800565b60405180910390f35b6100d06104b1565b6040516100dd919061083c565b60405180910390f35b6100ee6104d5565b6040516100fb9190610800565b60405180910390f35b7f000000000000000000000000000000000000000000000000000000000000000081565b7f000000000000000000000000000000000000000000000000000000000000000081565b6000806000807f000000000000000000000000000000000000000000000000000000000000000073ffffffffffffffffffffffffffffffffffffffff16631865c57d6040518163ffffffff1660e01b8152600401600060405180830381865afa1580156101bd573d6000803e3d6000fd5b505050506040513d6000823e3d601f19601f820116820180604052508101906101e69190610c06565b9250925092506000836000015163ffffffff169050600088600260009054906101000a900473ffffffffffffffffffffffffffffffffffffffff16622dc6c0338b8b60015430604051602001610243989796959493929190610d95565b60405160208183030381529060405290507f000000000000000000000000000000000000000000000000000000000000000073ffffffffffffffffffffffffffffffffffffffff16634000aea07f000000000000000000000000000000000000000000000000000000000000000060015460008054906101000a900460e01b856040516020016102d4929190610ed0565b6040516020818303038152906040526040518463ffffffff1660e01b815260040161030193929190610f31565b6020604051808303816000875af1158015610320573d6000803e3d6000fd5b505050506040513d601f19601f820116820180604052508101906103449190610fa7565b507f000000000000000000000000000000000000000000000000000000000000000073ffffffffffffffffffffffffffffffffffffffff16631865c57d6040518163ffffffff1660e01b8152600401600060405180830381865afa1580156103b0573d6000803e3d6000fd5b505050506040513d6000823e3d601f19601f820116820180604052508101906103d99190610c06565b8095508196508297505050506000856000015163ffffffff1690506001836104019190611003565b810361046f576001436104149190611037565b407f00000000000000000000000000000000000000000000000000000000000000008460405160200161044993929190611114565b6040516020818303038152906040528051906020012060001c96505050505050506104aa565b6040517f08c379a00000000000000000000000000000000000000000000000000000000081526004016104a19061119d565b60405180910390fd5b9392505050565b7f000000000000000000000000000000000000000000000000000000000000000081565b60015481565b600073ffffffffffffffffffffffffffffffffffffffff82169050919050565b6000819050919050565b600061052061051b610516846104db565b6104fb565b6104db565b9050919050565b600061053282610505565b9050919050565b600061054482610527565b9050919050565b61055481610539565b82525050565b600060208201905061056f600083018461054b565b92915050565b6000610580826104db565b9050919050565b61059081610575565b82525050565b60006020820190506105ab6000830184610587565b92915050565b6000604051905090565b600080fd5b600080fd5b600080fd5b600080fd5b6000601f19601f8301169050919050565b7f4e487b7100000000000000000000000000000000000000000000000000000000600052604160045260246000fd5b610618826105cf565b810181811067ffffffffffffffff82111715610637576106366105e0565b5b80604052505050565b600061064a6105b1565b9050610656828261060f565b919050565b600067ffffffffffffffff821115610676576106756105e0565b5b61067f826105cf565b9050602081019050919050565b82818337600083830152505050565b60006106ae6106a98461065b565b610640565b9050828152602081018484840111156106ca576106c96105ca565b5b6106d584828561068c565b509392505050565b600082601f8301126106f2576106f16105c5565b5b813561070284826020860161069b565b91505092915050565b600080fd5b600080fd5b60008083601f84011261072b5761072a6105c5565b5b8235905067ffffffffffffffff8111156107485761074761070b565b5b60208301915083600182028301111561076457610763610710565b5b9250929050565b600080600060408486031215610784576107836105bb565b5b600084013567ffffffffffffffff8111156107a2576107a16105c0565b5b6107ae868287016106dd565b935050602084013567ffffffffffffffff8111156107cf576107ce6105c0565b5b6107db86828701610715565b92509250509250925092565b6000819050919050565b6107fa816107e7565b82525050565b600060208201905061081560008301846107f1565b92915050565b600061082682610527565b9050919050565b6108368161081b565b82525050565b6000602082019050610851600083018461082d565b92915050565b600080fd5b600063ffffffff82169050919050565b6108758161085c565b811461088057600080fd5b50565b6000815190506108928161086c565b92915050565b60006bffffffffffffffffffffffff82169050919050565b6108b981610898565b81146108c457600080fd5b50565b6000815190506108d6816108b0565b92915050565b6108e5816107e7565b81146108f057600080fd5b50565b600081519050610902816108dc565b92915050565b60006080828403121561091e5761091d610857565b5b6109286080610640565b9050600061093884828501610883565b600083015250602061094c848285016108c7565b6020830152506040610960848285016108f3565b6040830152506060610974848285016108f3565b60608301525092915050565b600062ffffff82169050919050565b61099881610980565b81146109a357600080fd5b50565b6000815190506109b58161098f565b92915050565b600061ffff82169050919050565b6109d2816109bb565b81146109dd57600080fd5b50565b6000815190506109ef816109c9565b92915050565b6109fe81610575565b8114610a0957600080fd5b50565b600081519050610a1b816109f5565b92915050565b60006101808284031215610a3857610a37610857565b5b610a43610180610640565b90506000610a5384828501610883565b6000830152506020610a6784828501610883565b6020830152506040610a7b848285016109a6565b6040830152506060610a8f84828501610883565b6060830152506080610aa3848285016109a6565b60808301525060a0610ab7848285016109e0565b60a08301525060c0610acb848285016108c7565b60c08301525060e0610adf84828501610883565b60e083015250610100610af4848285016108f3565b61010083015250610120610b0a848285016108f3565b61012083015250610140610b2084828501610a0c565b61014083015250610160610b3684828501610a0c565b6101608301525092915050565b600067ffffffffffffffff821115610b5e57610b5d6105e0565b5b602082029050602081019050919050565b6000610b82610b7d84610b43565b610640565b90508083825260208201905060208402830185811115610ba557610ba4610710565b5b835b81811015610bce5780610bba8882610a0c565b845260208401935050602081019050610ba7565b5050509392505050565b600082601f830112610bed57610bec6105c5565b5b8151610bfd848260208601610b6f565b91505092915050565b60008060006102208486031215610c2057610c1f6105bb565b5b6000610c2e86828701610908565b9350506080610c3f86828701610a21565b92505061020084015167ffffffffffffffff811115610c6157610c606105c0565b5b610c6d86828701610bd8565b9150509250925092565b600081519050919050565b600082825260208201905092915050565b60005b83811015610cb1578082015181840152602081019050610c96565b60008484015250505050565b6000610cc882610c77565b610cd28185610c82565b9350610ce2818560208601610c93565b610ceb816105cf565b840191505092915050565b50565b6000610d06600083610c82565b9150610d1182610cf6565b600082019050919050565b6000819050919050565b6000610d41610d3c610d3784610d1c565b6104fb565b610980565b9050919050565b610d5181610d26565b82525050565b600082825260208201905092915050565b6000610d748385610d57565b9350610d8183858461068c565b610d8a836105cf565b840190509392505050565b6000610120820190508181036000830152610db0818b610cbd565b90508181036020830152610dc381610cf9565b9050610dd2604083018a610587565b610ddf6060830189610d48565b610dec6080830188610587565b81810360a0830152610dff818688610d68565b9050610e0e60c08301856107f1565b81810360e0830152610e1f81610cf9565b9050610e2f610100830184610587565b9998505050505050505050565b60007fffffffff0000000000000000000000000000000000000000000000000000000082169050919050565b6000819050919050565b610e83610e7e82610e3c565b610e68565b82525050565b600081519050919050565b600081905092915050565b6000610eaa82610e89565b610eb48185610e94565b9350610ec4818560208601610c93565b80840191505092915050565b6000610edc8285610e72565b600482019150610eec8284610e9f565b91508190509392505050565b6000610f0382610e89565b610f0d8185610d57565b9350610f1d818560208601610c93565b610f26816105cf565b840191505092915050565b6000606082019050610f466000830186610587565b610f5360208301856107f1565b8181036040830152610f658184610ef8565b9050949350505050565b60008115159050919050565b610f8481610f6f565b8114610f8f57600080fd5b50565b600081519050610fa181610f7b565b92915050565b600060208284031215610fbd57610fbc6105bb565b5b6000610fcb84828501610f92565b91505092915050565b7f4e487b7100000000000000000000000000000000000000000000000000000000600052601160045260246000fd5b600061100e826107e7565b9150611019836107e7565b925082820190508082111561103157611030610fd4565b5b92915050565b6000611042826107e7565b915061104d836107e7565b925082820390508181111561106557611064610fd4565b5b92915050565b6000819050919050565b6000819050919050565b61109061108b8261106b565b611075565b82525050565b60008160601b9050919050565b60006110ae82611096565b9050919050565b60006110c0826110a3565b9050919050565b6110d86110d382610575565b6110b5565b82525050565b60008160e01b9050919050565b60006110f6826110de565b9050919050565b61110e6111098261085c565b6110eb565b82525050565b6000611120828661107f565b60208201915061113082856110c7565b60148201915061114082846110fd565b600482019150819050949350505050565b7f6175746f2d617070726f76652064697361626c65640000000000000000000000600082015250565b6000611187601583610c82565b915061119282611151565b602082019050919050565b600060208201905081810360008301526111b68161117a565b905091905056fea26469706673582212200dc91184534f55b29f8b045f6b0b975e793c85dfceaa940ae7dc4ad4593ccc3564736f6c63430008110033a2646970667358221220380c438e09812d62df521d26418e03ae82f12b3445619188b7ca6c149b72a32d64736f6c63430008110033",
  "linkReferences": {},
  "deployedLinkReferences": {}
}