{
  "_format": "hh-sol-artifact-1",
  "contractName": "AveragingStrategy",
  "sourceName": "contracts/AveragingStrategy.sol",
  "abi": [
    {
      "anonymous": false,
      "inputs": [
        {
          "indexed": false,
          "internalType": "address",
          "name": "tokenAddress",
          "type": "address"
        },
        {
          "indexed": false,
          "internalType": "uint256",
          "name": "amount",
          "type": "uint256"
        }
      ],
      "name": "AmountAveragingStrategyUpdated",
      "type": "event"
    },
    {
      "anonymous": false,
      "inputs": [
        {
          "indexed": false,
          "internalType": "address",
          "name": "tokenAddress",
          "type": "address"
        },
        {
          "indexed": false,
          "internalType": "address",
          "name": "sourceToken",
          "type": "address"
        },
        {
          "indexed": false,
          "internalType": "bool",
          "name": "isActive",
          "type": "bool"
        },
        {
          "indexed": false,
          "internalType": "uint256",
          "name": "amount",
          "type": "uint256"
        },
        {
          "indexed": false,
          "internalType": "uint256",
          "name": "frequency",
          "type": "uint256"
        }
      ],
      "name": "AveragingStrategyCreated",
      "type": "event"
    },
    {
      "anonymous": false,
      "inputs": [
        {
          "indexed": false,
          "internalType": "address",
          "name": "tokenAddress",
          "type": "address"
        }
      ],
      "name": "AveragingStrategyDeleted",
      "type": "event"
    },
    {
      "anonymous": false,
      "inputs": [
        {
          "indexed": false,
          "internalType": "address",
          "name": "tokenAddress",
          "type": "address"
        },
        {
          "indexed": false,
          "internalType": "bool",
          "name": "isActive",
          "type": "bool"
        },
        {
          "indexed": false,
          "internalType": "uint256",
          "name": "amount",
          "type": "uint256"
        },
        {
          "indexed": false,
          "internalType": "uint256",
          "name": "frequency",
          "type": "uint256"
        }
      ],
      "name": "AveragingStrategyUpdated",
      "type": "event"
    },
    {
      "anonymous": false,
      "inputs": [
        {
          "indexed": false,
          "internalType": "address",
          "name": "tokenAddress",
          "type": "address"
        },
        {
          "indexed": false,
          "internalType": "uint256",
          "name": "frequency",
          "type": "uint256"
        }
      ],
      "name": "FrequencyAveragingStrategyUpdated",
      "type": "event"
    },
    {
      "anonymous": false,
      "inputs": [
        {
          "indexed": false,
          "internalType": "address",
          "name": "tokenAddress",
          "type": "address"
        },
        {
          "indexed": false,
          "internalType": "bool",
          "name": "isActive",
          "type": "bool"
        }
      ],
      "name": "StatusAveragingStrategyUpdated",
      "type": "event"
    },
    {
      "inputs": [
        {
          "internalType": "address",
          "name": "_averagedToken",
          "type": "address"
        },
        {
          "internalType": "address",
          "name": "_sourceToken",
          "type": "address"
        },
        {
          "internalType": "bool",
          "name": "_isActive",
          "type": "bool"
        },
        {
          "internalType": "uint256",
          "name": "_amount",
          "type": "uint256"
        },
        {
          "internalType": "uint256",
          "name": "_frequency",
          "type": "uint256"
        }
      ],
      "name": "createAveragingStrategy",
      "outputs": [],
      "stateMutability": "nonpayable",
      "type": "function"
    },
    {
      "inputs": [
        {
          "internalType": "address",
          "name": "_averagedToken",
          "type": "address"
        }
      ],
      "name": "deleteAveragingStrategy",
      "outputs": [],
      "stateMutability": "nonpayable",
      "type": "function"
    },
    {
      "inputs": [
        {
          "internalType": "address",
          "name": "_averagedToken",
          "type": "address"
        }
      ],
      "name": "readAveragingStrategy",
      "outputs": [
        {
          "components": [
            {
              "internalType": "address",
              "name": "sourceToken",
              "type": "address"
            },
            {
              "internalType": "bool",
              "name": "isActive",
              "type": "bool"
            },
            {
              "internalType": "uint256",
              "name": "amount",
              "type": "uint256"
            },
            {
              "internalType": "uint256",
              "name": "frequency",
              "type": "uint256"
            }
          ],
          "internalType": "struct AveragingStrategy.AveragingStrategyConfig",
          "name": "",
          "type": "tuple"
        }
      ],
      "stateMutability": "view",
      "type": "function"
    },
    {
      "inputs": [
        {
          "internalType": "address",
          "name": "_averagedToken",
          "type": "address"
        },
        {
          "internalType": "uint256",
          "name": "_amount",
          "type": "uint256"
        }
      ],
      "name": "updateAmountAveragingStrategy",
      "outputs": [],
      "stateMutability": "nonpayable",
      "type": "function"
    },
    {
      "inputs": [
        {
          "internalType": "address",
          "name": "_averagedToken",
          "type": "address"
        },
        {
          "internalType": "bool",
          "name": "_isActive",
          "type": "bool"
        },
        {
          "internalType": "uint256",
          "name": "_amount",
          "type": "uint256"
        },
        {
          "internalType": "uint256",
          "name": "_frequency",
          "type": "uint256"
        }
      ],
      "name": "updateAveragingStrategy",
      "outputs": [],
      "stateMutability": "nonpayable",
      "type": "function"
    },
    {
      "inputs": [
        {
          "internalType": "address",
          "name": "_averagedToken",
          "type": "address"
        },
        {
          "internalType": "uint256",
          "name": "_frequency",
          "type": "uint256"
        }
      ],
      "name": "updateFrequencyAveragingStrategy",
      "outputs": [],
      "stateMutability": "nonpayable",
      "type": "function"
    },
    {
      "inputs": [
        {
          "internalType": "address",
          "name": "_averagedToken",
          "type": "address"
        }
      ],
      "name": "updateStatusAveragingStrategy",
      "outputs": [],
      "stateMutability": "nonpayable",
      "type": "function"
    }
  ],
  "bytecode": "0x608060405234801561001057600080fd5b50610c6d806100206000396000f3fe608060405234801561001057600080fd5b506004361061007d5760003560e01c80634d614f401161005b5780634d614f40146100d657806378e1d958146100f2578063965e985d1461010e578063bf64f9df1461012a5761007d565b8063236052b5146100825780633634652e1461009e5780634a6a84be146100ba575b600080fd5b61009c60048036038101906100979190610919565b61015a565b005b6100b860048036038101906100b39190610980565b610282565b005b6100d460048036038101906100cf91906109c0565b610305565b005b6100f060048036038101906100eb91906109c0565b6103cb565b005b61010c60048036038101906101079190610980565b6104fd565b005b610128600480360381019061012391906109ed565b610580565b005b610144600480360381019061013f91906109c0565b61072b565b6040516101519190610aea565b60405180910390f35b826000808673ffffffffffffffffffffffffffffffffffffffff1673ffffffffffffffffffffffffffffffffffffffff16815260200190815260200160002060000160146101000a81548160ff021916908315150217905550816000808673ffffffffffffffffffffffffffffffffffffffff1673ffffffffffffffffffffffffffffffffffffffff16815260200190815260200160002060010181905550806000808673ffffffffffffffffffffffffffffffffffffffff1673ffffffffffffffffffffffffffffffffffffffff168152602001908152602001600020600201819055507f172d468e76115c1a6fa3f01b0b27ecdc71695efc2a27d603059e3e480107f1e7848484846040516102749493929190610b32565b60405180910390a150505050565b806000808473ffffffffffffffffffffffffffffffffffffffff1673ffffffffffffffffffffffffffffffffffffffff168152602001908152602001600020600101819055507f183cd447c8ed9fbbe48a061af56132f6aaba63710416deb806e33895a5939cb182826040516102f9929190610b77565b60405180910390a15050565b6000808273ffffffffffffffffffffffffffffffffffffffff1673ffffffffffffffffffffffffffffffffffffffff168152602001908152602001600020600080820160006101000a81549073ffffffffffffffffffffffffffffffffffffffff02191690556000820160146101000a81549060ff02191690556001820160009055600282016000905550507f05e9984540e47664017f699a27c3f478d05ef1bafce33c1ac64542ca1e7f70e3816040516103c09190610ba0565b60405180910390a150565b6000808273ffffffffffffffffffffffffffffffffffffffff1673ffffffffffffffffffffffffffffffffffffffff16815260200190815260200160002060000160149054906101000a900460ff16156000808373ffffffffffffffffffffffffffffffffffffffff1673ffffffffffffffffffffffffffffffffffffffff16815260200190815260200160002060000160146101000a81548160ff0219169083151502179055507f8e7f7d91bd29969915168e16f5c578b0002020023c9a22d3ae0f612bd5fd6416816000808473ffffffffffffffffffffffffffffffffffffffff1673ffffffffffffffffffffffffffffffffffffffff16815260200190815260200160002060000160149054906101000a900460ff166040516104f2929190610bbb565b60405180910390a150565b806000808473ffffffffffffffffffffffffffffffffffffffff1673ffffffffffffffffffffffffffffffffffffffff168152602001908152602001600020600201819055507fa793ead1af3107754cfcda5b88a068e2c9521ac74d482b95c38659c654b925898282604051610574929190610b77565b60405180910390a15050565b836000808773ffffffffffffffffffffffffffffffffffffffff1673ffffffffffffffffffffffffffffffffffffffff16815260200190815260200160002060000160006101000a81548173ffffffffffffffffffffffffffffffffffffffff021916908373ffffffffffffffffffffffffffffffffffffffff160217905550826000808773ffffffffffffffffffffffffffffffffffffffff1673ffffffffffffffffffffffffffffffffffffffff16815260200190815260200160002060000160146101000a81548160ff021916908315150217905550816000808773ffffffffffffffffffffffffffffffffffffffff1673ffffffffffffffffffffffffffffffffffffffff16815260200190815260200160002060010181905550806000808773ffffffffffffffffffffffffffffffffffffffff1673ffffffffffffffffffffffffffffffffffffffff168152602001908152602001600020600201819055507fd479c75d189f4aac903125e14273ca7cff663f12bdf8832b329d1430edf2b367858585858560405161071c959493929190610be4565b60405180910390a15050505050565b610733610808565b6000808373ffffffffffffffffffffffffffffffffffffffff1673ffffffffffffffffffffffffffffffffffffffff1681526020019081526020016000206040518060800160405290816000820160009054906101000a900473ffffffffffffffffffffffffffffffffffffffff1673ffffffffffffffffffffffffffffffffffffffff1673ffffffffffffffffffffffffffffffffffffffff1681526020016000820160149054906101000a900460ff16151515158152602001600182015481526020016002820154815250509050919050565b6040518060800160405280600073ffffffffffffffffffffffffffffffffffffffff16815260200160001515815260200160008152602001600081525090565b600080fd5b600073ffffffffffffffffffffffffffffffffffffffff82169050919050565b60006108788261084d565b9050919050565b6108888161086d565b811461089357600080fd5b50565b6000813590506108a58161087f565b92915050565b60008115159050919050565b6108c0816108ab565b81146108cb57600080fd5b50565b6000813590506108dd816108b7565b92915050565b6000819050919050565b6108f6816108e3565b811461090157600080fd5b50565b600081359050610913816108ed565b92915050565b6000806000806080858703121561093357610932610848565b5b600061094187828801610896565b9450506020610952878288016108ce565b935050604061096387828801610904565b925050606061097487828801610904565b91505092959194509250565b6000806040838503121561099757610996610848565b5b60006109a585828601610896565b92505060206109b685828601610904565b9150509250929050565b6000602082840312156109d6576109d5610848565b5b60006109e484828501610896565b91505092915050565b600080600080600060a08688031215610a0957610a08610848565b5b6000610a1788828901610896565b9550506020610a2888828901610896565b9450506040610a39888289016108ce565b9350506060610a4a88828901610904565b9250506080610a5b88828901610904565b9150509295509295909350565b610a718161086d565b82525050565b610a80816108ab565b82525050565b610a8f816108e3565b82525050565b608082016000820151610aab6000850182610a68565b506020820151610abe6020850182610a77565b506040820151610ad16040850182610a86565b506060820151610ae46060850182610a86565b50505050565b6000608082019050610aff6000830184610a95565b92915050565b610b0e8161086d565b82525050565b610b1d816108ab565b82525050565b610b2c816108e3565b82525050565b6000608082019050610b476000830187610b05565b610b546020830186610b14565b610b616040830185610b23565b610b6e6060830184610b23565b95945050505050565b6000604082019050610b8c6000830185610b05565b610b996020830184610b23565b9392505050565b6000602082019050610bb56000830184610b05565b92915050565b6000604082019050610bd06000830185610b05565b610bdd6020830184610b14565b9392505050565b600060a082019050610bf96000830188610b05565b610c066020830187610b05565b610c136040830186610b14565b610c206060830185610b23565b610c2d6080830184610b23565b969550505050505056fea26469706673582212202d029b59ced9f1477a93bd25216b90c1645d8c114099712878b3de45865be3af64736f6c63430008110033",
  "linkReferences": {},
  "deployedLinkReferences": {}
}