{
  "_format": "hh-sol-artifact-1",
  "contractName": "AveragingStrategy",
  "sourceName": "contracts/AveragingStrategy.sol",
  "abi": [
    {
      "anonymous": false,
      "inputs": [
        {
          "indexed": false,
          "internalType": "address",
          "name": "averagedToken",
          "type": "address"
        },
        {
          "indexed": false,
          "internalType": "uint256",
          "name": "amount",
          "type": "uint256"
        }
      ],
      "name": "AmountAveragingStrategyUpdated",
      "type": "event"
    },
    {
      "anonymous": false,
      "inputs": [
        {
          "indexed": false,
          "internalType": "address",
          "name": "averagedToken",
          "type": "address"
        },
        {
          "indexed": false,
          "internalType": "address",
          "name": "sourceToken",
          "type": "address"
        },
        {
          "indexed": false,
          "internalType": "bool",
          "name": "isActive",
          "type": "bool"
        },
        {
          "indexed": false,
          "internalType": "uint256",
          "name": "amount",
          "type": "uint256"
        },
        {
          "indexed": false,
          "internalType": "uint256",
          "name": "frequency",
          "type": "uint256"
        }
      ],
      "name": "AveragingStrategyCreated",
      "type": "event"
    },
    {
      "anonymous": false,
      "inputs": [
        {
          "indexed": false,
          "internalType": "address",
          "name": "averagedToken",
          "type": "address"
        }
      ],
      "name": "AveragingStrategyDeleted",
      "type": "event"
    },
    {
      "anonymous": false,
      "inputs": [
        {
          "indexed": false,
          "internalType": "address",
          "name": "averagedToken",
          "type": "address"
        },
        {
          "indexed": false,
          "internalType": "bool",
          "name": "isActive",
          "type": "bool"
        },
        {
          "indexed": false,
          "internalType": "uint256",
          "name": "amount",
          "type": "uint256"
        },
        {
          "indexed": false,
          "internalType": "uint256",
          "name": "frequency",
          "type": "uint256"
        }
      ],
      "name": "AveragingStrategyUpdated",
      "type": "event"
    },
    {
      "anonymous": false,
      "inputs": [
        {
          "indexed": false,
          "internalType": "address",
          "name": "averagedToken",
          "type": "address"
        },
        {
          "indexed": false,
          "internalType": "uint256",
          "name": "frequency",
          "type": "uint256"
        }
      ],
      "name": "FrequencyAveragingStrategyUpdated",
      "type": "event"
    },
    {
      "anonymous": false,
      "inputs": [
        {
          "indexed": false,
          "internalType": "address",
          "name": "averagedToken",
          "type": "address"
        },
        {
          "indexed": false,
          "internalType": "bool",
          "name": "isActive",
          "type": "bool"
        }
      ],
      "name": "StatusAveragingStrategyUpdated",
      "type": "event"
    },
    {
      "inputs": [
        {
          "internalType": "address",
          "name": "_averagedToken",
          "type": "address"
        },
        {
          "internalType": "address",
          "name": "_sourceToken",
          "type": "address"
        },
        {
          "internalType": "bool",
          "name": "_isActive",
          "type": "bool"
        },
        {
          "internalType": "uint256",
          "name": "_amount",
          "type": "uint256"
        },
        {
          "internalType": "uint256",
          "name": "_frequency",
          "type": "uint256"
        }
      ],
      "name": "createAveragingStrategy",
      "outputs": [],
      "stateMutability": "nonpayable",
      "type": "function"
    },
    {
      "inputs": [
        {
          "internalType": "address",
          "name": "_averagedToken",
          "type": "address"
        }
      ],
      "name": "deleteAveragingStrategy",
      "outputs": [],
      "stateMutability": "nonpayable",
      "type": "function"
    },
    {
      "inputs": [
        {
          "internalType": "address",
          "name": "_averagedToken",
          "type": "address"
        }
      ],
      "name": "readAveragingStrategy",
      "outputs": [
        {
          "components": [
            {
              "internalType": "address",
              "name": "sourceToken",
              "type": "address"
            },
            {
              "internalType": "address",
              "name": "averagedToken",
              "type": "address"
            },
            {
              "internalType": "bool",
              "name": "isActive",
              "type": "bool"
            },
            {
              "internalType": "uint256",
              "name": "amount",
              "type": "uint256"
            },
            {
              "internalType": "uint256",
              "name": "frequency",
              "type": "uint256"
            }
          ],
          "internalType": "struct AveragingStrategy.AveragingStrategyConfig",
          "name": "",
          "type": "tuple"
        }
      ],
      "stateMutability": "view",
      "type": "function"
    },
    {
      "inputs": [
        {
          "internalType": "address",
          "name": "_averagedToken",
          "type": "address"
        },
        {
          "internalType": "uint256",
          "name": "_amount",
          "type": "uint256"
        }
      ],
      "name": "updateAmountAveragingStrategy",
      "outputs": [],
      "stateMutability": "nonpayable",
      "type": "function"
    },
    {
      "inputs": [
        {
          "internalType": "address",
          "name": "_averagedToken",
          "type": "address"
        },
        {
          "internalType": "bool",
          "name": "_isActive",
          "type": "bool"
        },
        {
          "internalType": "uint256",
          "name": "_amount",
          "type": "uint256"
        },
        {
          "internalType": "uint256",
          "name": "_frequency",
          "type": "uint256"
        }
      ],
      "name": "updateAveragingStrategy",
      "outputs": [],
      "stateMutability": "nonpayable",
      "type": "function"
    },
    {
      "inputs": [
        {
          "internalType": "address",
          "name": "_averagedToken",
          "type": "address"
        },
        {
          "internalType": "uint256",
          "name": "_frequency",
          "type": "uint256"
        }
      ],
      "name": "updateFrequencyAveragingStrategy",
      "outputs": [],
      "stateMutability": "nonpayable",
      "type": "function"
    },
    {
      "inputs": [
        {
          "internalType": "address",
          "name": "_averagedToken",
          "type": "address"
        }
      ],
      "name": "updateStatusAveragingStrategy",
      "outputs": [],
      "stateMutability": "nonpayable",
      "type": "function"
    }
  ],
  "bytecode": "0x608060405234801561001057600080fd5b50610d9a806100206000396000f3fe608060405234801561001057600080fd5b506004361061007d5760003560e01c80634d614f401161005b5780634d614f40146100d657806378e1d958146100f2578063965e985d1461010e578063bf64f9df1461012a5761007d565b8063236052b5146100825780633634652e1461009e5780634a6a84be146100ba575b600080fd5b61009c60048036038101906100979190610a33565b61015a565b005b6100b860048036038101906100b39190610a9a565b610282565b005b6100d460048036038101906100cf9190610ada565b610305565b005b6100f060048036038101906100eb9190610ada565b6103f2565b005b61010c60048036038101906101079190610a9a565b610524565b005b61012860048036038101906101239190610b07565b6105a7565b005b610144600480360381019061013f9190610ada565b6107d2565b6040516101519190610c17565b60405180910390f35b826000808673ffffffffffffffffffffffffffffffffffffffff1673ffffffffffffffffffffffffffffffffffffffff16815260200190815260200160002060010160146101000a81548160ff021916908315150217905550816000808673ffffffffffffffffffffffffffffffffffffffff1673ffffffffffffffffffffffffffffffffffffffff16815260200190815260200160002060020181905550806000808673ffffffffffffffffffffffffffffffffffffffff1673ffffffffffffffffffffffffffffffffffffffff168152602001908152602001600020600301819055507f172d468e76115c1a6fa3f01b0b27ecdc71695efc2a27d603059e3e480107f1e7848484846040516102749493929190610c5f565b60405180910390a150505050565b806000808473ffffffffffffffffffffffffffffffffffffffff1673ffffffffffffffffffffffffffffffffffffffff168152602001908152602001600020600201819055507f183cd447c8ed9fbbe48a061af56132f6aaba63710416deb806e33895a5939cb182826040516102f9929190610ca4565b60405180910390a15050565b6000808273ffffffffffffffffffffffffffffffffffffffff1673ffffffffffffffffffffffffffffffffffffffff168152602001908152602001600020600080820160006101000a81549073ffffffffffffffffffffffffffffffffffffffff02191690556001820160006101000a81549073ffffffffffffffffffffffffffffffffffffffff02191690556001820160146101000a81549060ff02191690556002820160009055600382016000905550507f05e9984540e47664017f699a27c3f478d05ef1bafce33c1ac64542ca1e7f70e3816040516103e79190610ccd565b60405180910390a150565b6000808273ffffffffffffffffffffffffffffffffffffffff1673ffffffffffffffffffffffffffffffffffffffff16815260200190815260200160002060010160149054906101000a900460ff16156000808373ffffffffffffffffffffffffffffffffffffffff1673ffffffffffffffffffffffffffffffffffffffff16815260200190815260200160002060010160146101000a81548160ff0219169083151502179055507f8e7f7d91bd29969915168e16f5c578b0002020023c9a22d3ae0f612bd5fd6416816000808473ffffffffffffffffffffffffffffffffffffffff1673ffffffffffffffffffffffffffffffffffffffff16815260200190815260200160002060010160149054906101000a900460ff16604051610519929190610ce8565b60405180910390a150565b806000808473ffffffffffffffffffffffffffffffffffffffff1673ffffffffffffffffffffffffffffffffffffffff168152602001908152602001600020600301819055507fa793ead1af3107754cfcda5b88a068e2c9521ac74d482b95c38659c654b92589828260405161059b929190610ca4565b60405180910390a15050565b836000803373ffffffffffffffffffffffffffffffffffffffff1673ffffffffffffffffffffffffffffffffffffffff16815260200190815260200160002060000160006101000a81548173ffffffffffffffffffffffffffffffffffffffff021916908373ffffffffffffffffffffffffffffffffffffffff160217905550846000803373ffffffffffffffffffffffffffffffffffffffff1673ffffffffffffffffffffffffffffffffffffffff16815260200190815260200160002060010160006101000a81548173ffffffffffffffffffffffffffffffffffffffff021916908373ffffffffffffffffffffffffffffffffffffffff160217905550826000803373ffffffffffffffffffffffffffffffffffffffff1673ffffffffffffffffffffffffffffffffffffffff16815260200190815260200160002060010160146101000a81548160ff021916908315150217905550816000803373ffffffffffffffffffffffffffffffffffffffff1673ffffffffffffffffffffffffffffffffffffffff16815260200190815260200160002060020181905550806000803373ffffffffffffffffffffffffffffffffffffffff1673ffffffffffffffffffffffffffffffffffffffff168152602001908152602001600020600301819055507fd479c75d189f4aac903125e14273ca7cff663f12bdf8832b329d1430edf2b36785858585856040516107c3959493929190610d11565b60405180910390a15050505050565b6107da610905565b6000808373ffffffffffffffffffffffffffffffffffffffff1673ffffffffffffffffffffffffffffffffffffffff1681526020019081526020016000206040518060a00160405290816000820160009054906101000a900473ffffffffffffffffffffffffffffffffffffffff1673ffffffffffffffffffffffffffffffffffffffff1673ffffffffffffffffffffffffffffffffffffffff1681526020016001820160009054906101000a900473ffffffffffffffffffffffffffffffffffffffff1673ffffffffffffffffffffffffffffffffffffffff1673ffffffffffffffffffffffffffffffffffffffff1681526020016001820160149054906101000a900460ff16151515158152602001600282015481526020016003820154815250509050919050565b6040518060a00160405280600073ffffffffffffffffffffffffffffffffffffffff168152602001600073ffffffffffffffffffffffffffffffffffffffff16815260200160001515815260200160008152602001600081525090565b600080fd5b600073ffffffffffffffffffffffffffffffffffffffff82169050919050565b600061099282610967565b9050919050565b6109a281610987565b81146109ad57600080fd5b50565b6000813590506109bf81610999565b92915050565b60008115159050919050565b6109da816109c5565b81146109e557600080fd5b50565b6000813590506109f7816109d1565b92915050565b6000819050919050565b610a10816109fd565b8114610a1b57600080fd5b50565b600081359050610a2d81610a07565b92915050565b60008060008060808587031215610a4d57610a4c610962565b5b6000610a5b878288016109b0565b9450506020610a6c878288016109e8565b9350506040610a7d87828801610a1e565b9250506060610a8e87828801610a1e565b91505092959194509250565b60008060408385031215610ab157610ab0610962565b5b6000610abf858286016109b0565b9250506020610ad085828601610a1e565b9150509250929050565b600060208284031215610af057610aef610962565b5b6000610afe848285016109b0565b91505092915050565b600080600080600060a08688031215610b2357610b22610962565b5b6000610b31888289016109b0565b9550506020610b42888289016109b0565b9450506040610b53888289016109e8565b9350506060610b6488828901610a1e565b9250506080610b7588828901610a1e565b9150509295509295909350565b610b8b81610987565b82525050565b610b9a816109c5565b82525050565b610ba9816109fd565b82525050565b60a082016000820151610bc56000850182610b82565b506020820151610bd86020850182610b82565b506040820151610beb6040850182610b91565b506060820151610bfe6060850182610ba0565b506080820151610c116080850182610ba0565b50505050565b600060a082019050610c2c6000830184610baf565b92915050565b610c3b81610987565b82525050565b610c4a816109c5565b82525050565b610c59816109fd565b82525050565b6000608082019050610c746000830187610c32565b610c816020830186610c41565b610c8e6040830185610c50565b610c9b6060830184610c50565b95945050505050565b6000604082019050610cb96000830185610c32565b610cc66020830184610c50565b9392505050565b6000602082019050610ce26000830184610c32565b92915050565b6000604082019050610cfd6000830185610c32565b610d0a6020830184610c41565b9392505050565b600060a082019050610d266000830188610c32565b610d336020830187610c32565b610d406040830186610c41565b610d4d6060830185610c50565b610d5a6080830184610c50565b969550505050505056fea264697066735822122047fc7fb01697804861de895c95883f17de14075ae0f979a04ced821be446b0b764736f6c63430008110033",
  "linkReferences": {},
  "deployedLinkReferences": {}
}